:020000040000FA
:100000000C9463000C948B000C948B000C948B006C
:100010000C948B000C948B000C948B000C948B0034
:100020000C948B000C948B000C948B000C948B0024
:100030000C948B000C948B000C948B000C948B0014
:100040000C9478030C948B000C9446030C942003BE
:100050000C948B000C948B000C948B000C948B00F4
:100060000C948B000C948B000000000023002600F1
:10007000290000000008000201000003040700003E
:1000800000000000000000000000250028002B00F8
:1000900000000000240027002A00040404040404D3
:1000A0000404020202020202030303030303010227
:1000B00004081020408001020408102001020408F6
:1000C00010200B04590611241FBECFEFD8E0DEBF6D
:1000D000CDBF24E0AAE8B3E001C01D92A433B2076B
:1000E000E1F713E0A0E0B1E0EEEAF1E102C0059033
:1000F0000D92AA38B107D9F710E0C2E6D0E004C0EB
:100100002197FE010E94D206C136D107C9F70E948D
:1001100067040C94CA080C940000CF93DF9390E01E
:10012000FC01E255FF4F249186569F4FFC018491BC
:100130008823C1F090E0880F991FFC01E057FF4F22
:10014000C591D491FC01EA57FF4FA591B4919FB797
:10015000F8948881E22FE0958E2388838C91E823A0
:10016000EC939FBFDF91CF910895AF92BF92CF9252
:10017000DF92EF92FF920F931F93CF93DF936C0167
:100180007B018B01040F151FEB015E01AE18BF0848
:10019000C017D10759F06991D601ED91FC910190FA
:1001A000F081E02DC6010995892B79F7C501DF9112
:1001B000CF911F910F91FF90EF90DF90CF90BF9064
:1001C000AF900895FC01538D448D252F30E0842F8E
:1001D00090E0821B930B541710F0CF96089501976F
:1001E0000895FC01918D828D981761F0A28DAE0F5C
:1001F000BF2FB11D5D968C91928D9F5F9F73928FE3
:1002000090E008958FEF9FEF0895FC01918D828D0E
:10021000981731F0828DE80FF11D858D90E00895DB
:100220008FEF9FEF0895FC01918D228D892F90E033
:10023000805C9F4F821B91098F739927089583E9F2
:1002400093E00E94130121E0892B09F420E0822F22
:10025000089580E090E0892B29F00E941F01811110
:100260000C9400000895FC01A48DA80FB92FB11DB6
:10027000A35ABF4F2C91848D90E001968F739927DC
:10028000848FA689B7892C93A089B1898C918370BA
:1002900080648C93938D848D981306C00288F389B3
:1002A000E02D80818F7D80830895EF92FF920F93E0
:1002B0001F93CF93DF93EC0181E0888F9B8D8C8D12
:1002C00098131AC0E889F989808185FF15C09FB706
:1002D000F894EE89FF896083E889F98980818370C9
:1002E000806480839FBF81E090E0DF91CF911F9178
:1002F0000F91FF90EF900895F62E0B8D10E00F5F99
:100300001F4F0F731127E02E8C8D8E110CC00FB66E
:1003100007FCFACFE889F989808185FFF5CFCE0106
:100320000E943301F1CFEB8DEC0FFD2FF11DE35A4D
:10033000FF4FF0829FB7F8940B8FEA89FB89808189
:100340008062CFCFCF93DF93EC01888D8823B9F003
:10035000AA89BB89E889F9898C9185FD03C08081D0
:1003600086FD0DC00FB607FCF7CF8C9185FFF2CF4D
:10037000808185FFEDCFCE010E943301E9CFDF916F
:10038000CF91089590E0FC01EE58FF4F2491FC01BD
:10039000E255FF4F3491FC01E656FF4FE491EE2306
:1003A000C1F1222339F02330E9F090F4213001F13A
:1003B000223011F1F0E0EE0FFF1FE859FF4FA59139
:1003C000B491EC91E32381E090E029F580E0089579
:1003D0002730A9F02830C9F0243061F780918000DF
:1003E0008F7D03C0809180008F7780938000E2CF63
:1003F00084B58F7784BDDECF84B58F7DFBCF8091B0
:10040000B0008F778093B000D5CF8091B0008F7D02
:10041000F9CF80E090E008953FB7F89480918F0382
:1004200090919003A0919103B091920326B5A89B5F
:1004300005C02F3F19F00196A11DB11D3FBFBA2F76
:10044000A92F982F8827BC01CD01620F711D811D36
:10045000911D42E0660F771F881F991F4A95D1F7BB
:1004600008958F929F92AF92BF92CF92DF92EF92B8
:10047000FF924B015C010E940C026B017C010E9407
:100480000C026C197D098E099F09683E7340810535
:100490009105A8F321E0821A9108A108B10888EE1D
:1004A000C80E83E0D81EE11CF11C81149104A10444
:1004B000B10429F7FF90EF90DF90CF90BF90AF90FD
:1004C0009F908F900895FC0101900020E9F73197EB
:1004D000AF01481B590BBC0183E993E00C94B500B4
:1004E00082E591E00C946302CF93DF93FC01448199
:1004F00055816081718183E993E00E94B500EC0130
:100500000E9470028C0F9D1FDF91CF910895CF93B1
:10051000DF930E946302EC010E9470028C0F9D1F0A
:10052000DF91CF9108958F929F92AF92BF92CF9219
:10053000DF92EF92FF920F931F93CF93DF93CDB78C
:10054000DEB7A1970FB6F894DEBF0FBECDBF6C012A
:10055000990FEE08FF08F7FE45C06DE283E993E0CE
:100560000E9455018C0122273327A9012C193D092E
:100570004E095F0919A2CE0181967C019AE0892E6D
:10058000912CA12CB12CCA01B901A50194010E94A2
:10059000B006605DF70162937F01211531054105C9
:1005A000510589F790E080E0309719F0CF010E9463
:1005B0006302080F191F0E947002800F911FA196FD
:1005C0000FB6F894DEBF0FBECDBFDF91CF911F9164
:1005D0000F91FF90EF90DF90CF90BF90AF909F90E2
:1005E0008F900895A701960119A28E010F5D1F4FEC
:1005F0008AE0C82ED12CE12CF12CCA01B901A70147
:1006000096010E94B006605DF80162938F0121158A
:1006100031054105510589F7309729F0CF010E9436
:1006200063028C01C8CF10E000E0C5CF0C946302D8
:10063000FC0180819181009711F00C94740708955A
:100640001F920F920FB60F9211242F933F934F9347
:100650005F936F937F938F939F93AF93BF93EF932A
:10066000FF9383E993E00E943301FF91EF91BF91E3
:10067000AF919F918F917F916F915F914F913F913A
:100680002F910F900FBE0F901F9018951F920F92F1
:100690000FB60F9211242F938F939F93EF93FF9395
:1006A000E091A303F091A4038081E091A903F0916C
:1006B000AA0382FD1BC090818091AC038F5F8F7372
:1006C0002091AD03821741F0E091AC03F0E0ED56CC
:1006D000FC4F958F8093AC03FF91EF919F918F9189
:1006E0002F910F900FBE0F901F9018958081F4CF1F
:1006F0001F920F920FB60F9211242F933F938F9357
:100700009F93AF93BF9380918B0390918C03A091A3
:100710008D03B0918E0330918A0323E0230F2D3790
:1007200058F50196A11DB11D20938A0380938B0378
:1007300090938C03A0938D03B0938E0380918F03CD
:1007400090919003A0919103B09192030196A11D05
:10075000B11D80938F0390939003A0939103B09366
:100760009203BF91AF919F918F913F912F910F90E5
:100770000FBE0F901F90189526E8230F0296A11D1B
:10078000B11DD2CFEF92FF920F931F93CF93DF93C0
:10079000EC017B01198218821B821A821D821C8245
:1007A000FB0101900020E9F731978F01061B170B21
:1007B000B8016F5F7F4F90E080E00E94FD070097D7
:1007C000B9F0998388831B830A832C813D81232B75
:1007D00011F4FC0110821D830C83B701888199817B
:1007E000DF91CF911F910F91FF90EF900C94C30870
:1007F00088819981009711F00E94740719821882EC
:100800001D821C821B821A82DF91CF911F910F9152
:10081000FF90EF900895E3E9F3E01382128288EEEF
:1008200093E0A0E0B0E084839583A683B78384E45B
:1008300091E09183808385EC90E09587848784ECB8
:1008400090E09787868780EC90E0918B808B81EC9D
:1008500090E0938B828B82EC90E0958B848B86EC7E
:1008600090E0978B868B118E128E138E148E65E519
:1008700071E082E091E00E94C20363E671E088E0EB
:1008800091E00E94C20364E771E08EE091E00E9473
:10089000C20364E871E084E191E00E94C2036CE964
:1008A00071E08AE191E00E94C20367EA71E080E2B0
:1008B00091E00E94C20362EB71E086E291E00E9447
:1008C000C2036DEB71E08CE291E00C94C20378946A
:1008D00084B5826084BD84B5816084BD85B5826045
:1008E00085BD85B5816085BD80916E0081608093F6
:1008F0006E0010928100809181008260809381005F
:10090000809181008160809381008091800081606E
:10091000809380008091B10084608093B1008091C9
:10092000B00081608093B00080917A0084608093F1
:100930007A0080917A00826080937A0080917A00B8
:10094000816080937A0080917A00806880937A0039
:100950001092C100E091A303F091A40382E0808390
:10096000E0919F03F091A0031082E091A103F09128
:10097000A2038FEC80831092AB03E091A703F09168
:10098000A80386E08083E091A503F091A60380810F
:1009900080618083E091A503F091A6038081886047
:1009A0008083E091A503F091A60380818068808315
:1009B000E091A503F091A60380818F7D808382E082
:1009C0000E948D0083E00E948D0088EC91E00E94DF
:1009D00087020E9470020E9470020E9470028CEFD7
:1009E00091E00E9487020E94700280E0482E80E021
:1009F000582E92E0692E712C24E0822E912C06E074
:100A000010E038E0E32EF12C47E0C42ED12C82E038
:100A10000E94C201EC0183E00E94C2015C01CD2B67
:100A200079F0C0910001D091010164E670E080E0AE
:100A300090E00E9431022196D0930101C093000101
:100A4000AB2879F0C0910001D091010164E670E01B
:100A500080E090E00E9431022397D0930101C0937F
:100A6000000180910001909101010197E1F583E17E
:100A700092E00E94160382E091E00E94740264EF0B
:100A800071E080E090E00E9431027092010160927A
:100A90000001131464F062E370E080E090E00E94D3
:100AA000310289E192E00E9487023394F2CF88E616
:100AB00092E00E9416038AE191E00E9474026AE5C6
:100AC00070E080E090E00E94310288EA92E00E94AB
:100AD000160380913201909133010E9493020E948B
:100AE00070020E94700280910001909101010397B1
:100AF000C1F583E192E00E94160388E091E00E9434
:100B0000740264EF71E080E090E00E943102909204
:100B100001018092000162E370E080E090E00E94B9
:100B2000310289E192E00E94870284EC92E00E9407
:100B3000160380E291E00E9474026AE570E080E0B2
:100B400090E00E94310288EA92E00E9416038091B0
:100B50003401909135010E9493020E9470020E941C
:100B6000700280910001909101010597C1F583E128
:100B700092E00E9416038EE091E00E94740264EFFE
:100B800071E080E090E00E94310210930101009337
:100B9000000162E370E080E090E00E94310289E1B0
:100BA00092E00E94870286E093E00E94160386E2AC
:100BB00091E00E9474026AE570E080E090E00E949B
:100BC000310288EA92E00E941603809136019091EA
:100BD00037010E9493020E9470020E94700280916D
:100BE0000001909101010797C1F583E192E00E9415
:100BF000160384E191E00E94740264EF71E080E0EA
:100C000090E00E943102F0920101E092000162E363
:100C100070E080E090E00E94310289E192E00E9461
:100C2000870287E493E00E9416038CE291E00E9421
:100C300074026AE570E080E090E00E94310288EA88
:100C400092E00E94160380913801909139010E9430
:100C500093020E9470020E947002809100019091A4
:100C6000010197FF04C0D0920101C0920001809160
:100C7000000190910101089754F069E170E080E073
:100C800090E00E943102109201011092000164E68E
:100C900070E080E090E00E9431024114510409F4B8
:100CA000B6CE0E941F01882309F4B1CE0E94000035
:100CB000AECE8CE291E00E94180386E291E00E94A1
:100CC000180380E291E00E9418038AE191E00E94FB
:100CD000180384E191E00E9418038EE091E00E94E5
:100CE000180388E091E00E94180382E091E00C94E0
:100CF00018032F923F924F925F926F927F928F9242
:100D00009F92AF92BF92CF92DF92EF92FF920F939A
:100D10001F93CF93DF93CDB7DEB7CA1BDB0B0FB6A4
:100D2000F894DEBF0FBECDBF09942A883988488861
:100D30005F846E847D848C849B84AA84B984C884F7
:100D4000DF80EE80FD800C811B81AA81B981CE0FEE
:100D5000D11D0FB6F894DEBF0FBECDBFED010895D3
:100D6000A1E21A2EAA1BBB1BFD010DC0AA1FBB1FAF
:100D7000EE1FFF1FA217B307E407F50720F0A21B21
:100D8000B30BE40BF50B661F771F881F991F1A948E
:100D900069F760957095809590959B01AC01BD01B8
:100DA000CF010895EE0FFF1F0590F491E02D0994F7
:100DB0000F931F93CF93DF938230910510F482E05D
:100DC00090E0E0913204F091330430E020E0B0E0B4
:100DD000A0E0309799F42115310509F44AC0281B89
:100DE000390B24303105D8F58A819B816115710555
:100DF00089F1FB0193838283FE0111C040815181FF
:100E00000281138148175907E0F04817590799F4F0
:100E1000109761F012960C93129713961C933296CA
:100E2000CF01DF91CF911F910F910895009332046C
:100E300010933304F4CF2115310551F042175307B5
:100E400038F0A901DB019A01BD01DF01F801C1CF32
:100E5000EF01F9CF9093330480933204CDCFFE019C
:100E6000E20FF31F81939193225031093983288334
:100E7000D7CF2091300430913104232B41F42091BD
:100E80003C0130913D013093310420933004209196
:100E90003A0130913B012115310541F42DB73EB7A0
:100EA00040913E0150913F01241B350BE0913004ED
:100EB000F0913104E217F307A0F42E1B3F0B281723
:100EC000390778F0AC014E5F5F4F2417350748F0C3
:100ED0004E0F5F1F509331044093300481939193E0
:100EE0009FCFF0E0E0E09CCFCF93DF930097E9F055
:100EF000FC01329713821282A0913204B091330424
:100F0000ED0130E020E01097A1F420813181820FC3
:100F1000931F20913004309131042817390709F0CC
:100F200061C0F0933104E0933004DF91CF910895D4
:100F3000EA01CE17DF07E8F54A815B819E01411582
:100F40005105B1F7E901FB83EA8349915991C40F37
:100F5000D51FEC17FD0761F4808191810296840F03
:100F6000951FE90199838883828193819B838A837A
:100F7000F0E0E0E012968D919C9113970097B9F5FF
:100F80002D913C911197CD010296820F931F2091D4
:100F90003004309131042817390739F6309751F56C
:100FA0001092330410923204B0933104A0933004B1
:100FB000BCCFD383C28340815181840F951FC81752
:100FC000D90761F44E5F5F4F88819981480F591F9F
:100FD000518340838A819B819383828321153105CC
:100FE00009F0B0CFF0933304E09332049ECFFD01BB
:100FF000DC01C0CF13821282D7CFB0E0A0E0E3E0E3
:10100000F8E00C947B068C01009751F4CB010E9410
:10101000D8068C01C801CDB7DEB7E0E10C94970685
:10102000FC01E60FF71F9C0122503109E217F3077C
:1010300008F49DC0D901CD91DC911197C617D7074F
:1010400098F0C530D10530F3CE0104978617970785
:1010500008F3C61BD70B2297C193D1936D937C9352
:10106000CF010E947407D6CF5B01AC1ABD0A4C01B8
:101070008C0E9D1EA0913204B0913304512C412C52
:10108000F12CE12C109731F58091300490913104CE
:101090008815990509F05CC04616570608F058C037
:1010A00080913A0190913B01009741F48DB79EB732
:1010B00040913E0150913F01841B950BE817F907C1
:1010C00008F055C0F0933104E0933004F9017183C6
:1010D0006083A0CF8D919C91119712966C9012977E
:1010E00013967C901397A815B90559F56C0142E049
:1010F000C40ED11CCA14DB0420F1AC014A195B09EF
:10110000DA011296159780F06282738251834083D0
:10111000D9016D937C93E114F10471F0D70113961A
:10112000FC93EE93129776CF22968C0F9D1FF901B8
:1011300091838083F301EFCFF0933304E093320483
:1011400069CF4816590608F42C017D01D3019ACFC6
:10115000CB010E94D8067C01009749F0AE01B8018E
:101160000E94BA08C8010E947407870153CF10E09B
:1011700000E050CFFB01DC0102C001900D92415014
:101180005040D8F70895FB01DC0101900D9200203A
:10119000E1F7089510E0C2E6D0E004C0FE010E942D
:1011A000D2062196C336D107C9F7F894FFCF0100C4
:1011B000000000000000000000000000000000002F
:1011C000000000000000000000000000000000001F
:1011D000000000000000000000000000000000000F
:1011E0000C00190014001E000000340480000000F0
:1011F00000005501B500E200A2011301F100050154
:101200000D0A00544F5254524958204C494D4F4EEC
:1012100000544F5254524958204241524241434F88
:101220004100544F525452495820504943414E5462
:101230004500544F5254524958205441434F532073
:101240004348494C452D524F530032342F30352FEF
:10125000323033320031322F30312F3230333900D7
:1012600033302F31302F323033350031372F313298
:101270002F32303337002020202020202020202033
:10128000202020202020202020202020202020205E
:101290002020202020205469656E6461206C61202C
:1012A000436F6D756E696461640050726F6475633D
:1012B000746F7320446973706F6E69626C65733A02
:1012C000002020202D2D0020202020202020202044
:1012D000202020202020202020202020202020200E
:1012E00020202020202020202020202020202020FE
:1012F00020202020202020202020202020202020EE
:1013000020204665636861206465206361647563BD
:10131000696461643A00202020202020202043615D
:101320006E746964616420646520544F525452495C
:1013300058207361626F72204C494D4F4E20656E8C
:101340002073746F636B3A202020202020202020FF
:1013500020202020200020202020202020202020AD
:10136000202020202020202020202020202020207D
:101370002000202020202020202043616E746964FA
:10138000616420646520544F52545249582073615F
:10139000626F72204241524241434F4120656E20AC
:1013A00073746F636B3A202020202020202020209F
:1013B00020202000202020202020202043616E7447
:1013C0006964616420646520544F52545249582026
:1013D0007361626F7220504943414E544520656EDF
:1013E0002073746F636B3A2020202020202020205F
:1013F0002020202000202020202020202043616E5B
:10140000746964616420646520544F525452495891
:10141000207361626F72205441434F532043484907
:101420004C452D524F5320656E2073746F636B3A99
:081430002020202020200000F4
:107E0000112484B714BE81FFF0D085E080938100F7
:107E100082E08093C00088E18093C10086E0809377
:107E2000C20080E18093C4008EE0C9D0259A86E02C
:107E300020E33CEF91E0309385002093840096BBD3
:107E4000B09BFECF1D9AA8958150A9F7CC24DD24C4
:107E500088248394B5E0AB2EA1E19A2EF3E0BF2EE7
:107E6000A2D0813461F49FD0082FAFD0023811F036
:107E7000013811F484E001C083E08DD089C08234E0
:107E800011F484E103C0853419F485E0A6D080C0E4
:107E9000853579F488D0E82EFF2485D0082F10E0AE
:107EA000102F00270E291F29000F111F8ED06801E7
:107EB0006FC0863521F484E090D080E0DECF843638
:107EC00009F040C070D06FD0082F6DD080E0C81688
:107ED00080E7D80618F4F601B7BEE895C0E0D1E017
:107EE00062D089930C17E1F7F0E0CF16F0E7DF06D8
:107EF00018F0F601B7BEE89568D007B600FCFDCFD4
:107F0000A601A0E0B1E02C9130E011968C91119780
:107F100090E0982F8827822B932B1296FA010C0160
:107F200087BEE89511244E5F5F4FF1E0A038BF0790
:107F300051F7F601A7BEE89507B600FCFDCF97BE46
:107F4000E89526C08437B1F42ED02DD0F82E2BD052
:107F50003CD0F601EF2C8F010F5F1F4F84911BD097
:107F6000EA94F801C1F70894C11CD11CFA94CF0C13
:107F7000D11C0EC0853739F428D08EE10CD085E9AC
:107F80000AD08FE07ACF813511F488E018D01DD067
:107F900080E101D065CF982F8091C00085FFFCCF94
:107FA0009093C60008958091C00087FFFCCF809118
:107FB000C00084FD01C0A8958091C6000895E0E648
:107FC000F0E098E1908380830895EDDF803219F02E
:107FD00088E0F5DFFFCF84E1DECF1F93182FE3DFCA
:107FE0001150E9F7F2DF1F91089580E0E8DFEE27F6
:047FF000FF270994CA
:027FFE00040479
:00000001FF
